{
	"abi": [
		{
			"inputs": [],
			"stateMutability": "nonpayable",
			"type": "constructor"
		},
		{
			"anonymous": false,
			"inputs": [
				{
					"indexed": false,
					"internalType": "address",
					"name": "user",
					"type": "address"
				},
				{
					"indexed": false,
					"internalType": "uint256",
					"name": "amount",
					"type": "uint256"
				}
			],
			"name": "Claim",
			"type": "event"
		},
		{
			"anonymous": false,
			"inputs": [
				{
					"indexed": false,
					"internalType": "address",
					"name": "user",
					"type": "address"
				},
				{
					"indexed": false,
					"internalType": "enum GasLockR.orderType",
					"name": "ordertype",
					"type": "uint8"
				},
				{
					"indexed": false,
					"internalType": "enum GasLockR.orderLevel",
					"name": "Level",
					"type": "uint8"
				},
				{
					"indexed": false,
					"internalType": "uint256",
					"name": "gasPrice",
					"type": "uint256"
				}
			],
			"name": "Deposit",
			"type": "event"
		},
		{
			"inputs": [],
			"name": "DENOMINATOR",
			"outputs": [
				{
					"internalType": "uint256",
					"name": "",
					"type": "uint256"
				}
			],
			"stateMutability": "view",
			"type": "function"
		},
		{
			"inputs": [
				{
					"internalType": "enum GasLockR.orderType",
					"name": "",
					"type": "uint8"
				}
			],
			"name": "baseGasPrice",
			"outputs": [
				{
					"internalType": "uint256",
					"name": "",
					"type": "uint256"
				}
			],
			"stateMutability": "view",
			"type": "function"
		},
		{
			"inputs": [
				{
					"internalType": "enum GasLockR.orderType",
					"name": "ordertype",
					"type": "uint8"
				},
				{
					"internalType": "enum GasLockR.orderLevel",
					"name": "Level",
					"type": "uint8"
				}
			],
			"name": "calcuValue",
			"outputs": [
				{
					"internalType": "uint256",
					"name": "payment",
					"type": "uint256"
				}
			],
			"stateMutability": "view",
			"type": "function"
		},
		{
			"inputs": [],
			"name": "cash",
			"outputs": [
				{
					"internalType": "uint256",
					"name": "",
					"type": "uint256"
				}
			],
			"stateMutability": "view",
			"type": "function"
		},
		{
			"inputs": [
				{
					"internalType": "address",
					"name": "user",
					"type": "address"
				},
				{
					"internalType": "uint256",
					"name": "blockNumber",
					"type": "uint256"
				},
				{
					"internalType": "uint256[]",
					"name": "gasPriceList",
					"type": "uint256[]"
				}
			],
			"name": "check",
			"outputs": [
				{
					"internalType": "uint256",
					"name": "claimValue",
					"type": "uint256"
				}
			],
			"stateMutability": "view",
			"type": "function"
		},
		{
			"inputs": [
				{
					"internalType": "address payable",
					"name": "user",
					"type": "address"
				},
				{
					"internalType": "uint256",
					"name": "blockNumber",
					"type": "uint256"
				}
			],
			"name": "claimAdvanced",
			"outputs": [],
			"stateMutability": "nonpayable",
			"type": "function"
		},
		{
			"inputs": [
				{
					"internalType": "address payable",
					"name": "user",
					"type": "address"
				},
				{
					"internalType": "uint256",
					"name": "sendAmount",
					"type": "uint256"
				}
			],
			"name": "claimNormal",
			"outputs": [],
			"stateMutability": "nonpayable",
			"type": "function"
		},
		{
			"inputs": [
				{
					"internalType": "address",
					"name": "user",
					"type": "address"
				},
				{
					"internalType": "enum GasLockR.orderType",
					"name": "ordertype",
					"type": "uint8"
				},
				{
					"internalType": "enum GasLockR.orderLevel",
					"name": "Level",
					"type": "uint8"
				}
			],
			"name": "deposit",
			"outputs": [],
			"stateMutability": "payable",
			"type": "function"
		},
		{
			"inputs": [
				{
					"internalType": "enum GasLockR.orderType",
					"name": "",
					"type": "uint8"
				}
			],
			"name": "floatRate",
			"outputs": [
				{
					"internalType": "uint256",
					"name": "",
					"type": "uint256"
				}
			],
			"stateMutability": "view",
			"type": "function"
		},
		{
			"inputs": [
				{
					"internalType": "uint256",
					"name": "blockNumber",
					"type": "uint256"
				}
			],
			"name": "getGasPrice",
			"outputs": [
				{
					"internalType": "uint256[]",
					"name": "gasPriceList",
					"type": "uint256[]"
				}
			],
			"stateMutability": "nonpayable",
			"type": "function"
		},
		{
			"inputs": [
				{
					"internalType": "address",
					"name": "user",
					"type": "address"
				}
			],
			"name": "isExistOrder",
			"outputs": [
				{
					"internalType": "bool",
					"name": "",
					"type": "bool"
				}
			],
			"stateMutability": "view",
			"type": "function"
		},
		{
			"inputs": [],
			"name": "maxOrderValue",
			"outputs": [
				{
					"internalType": "uint256",
					"name": "",
					"type": "uint256"
				}
			],
			"stateMutability": "view",
			"type": "function"
		},
		{
			"inputs": [],
			"name": "minOrderValue",
			"outputs": [
				{
					"internalType": "uint256",
					"name": "",
					"type": "uint256"
				}
			],
			"stateMutability": "view",
			"type": "function"
		},
		{
			"inputs": [
				{
					"internalType": "uint256",
					"name": "",
					"type": "uint256"
				}
			],
			"name": "orderList",
			"outputs": [
				{
					"internalType": "enum GasLockR.orderType",
					"name": "Type",
					"type": "uint8"
				},
				{
					"internalType": "enum GasLockR.orderLevel",
					"name": "Level",
					"type": "uint8"
				},
				{
					"internalType": "uint256",
					"name": "startTime",
					"type": "uint256"
				},
				{
					"internalType": "uint256",
					"name": "endTime",
					"type": "uint256"
				},
				{
					"internalType": "uint256",
					"name": "triggerValue",
					"type": "uint256"
				},
				{
					"internalType": "uint256",
					"name": "maxValue",
					"type": "uint256"
				},
				{
					"internalType": "uint256",
					"name": "rate",
					"type": "uint256"
				},
				{
					"internalType": "bool",
					"name": "exists",
					"type": "bool"
				},
				{
					"internalType": "bool",
					"name": "isExpired",
					"type": "bool"
				}
			],
			"stateMutability": "view",
			"type": "function"
		},
		{
			"inputs": [
				{
					"internalType": "enum GasLockR.orderType",
					"name": "",
					"type": "uint8"
				}
			],
			"name": "orderRate",
			"outputs": [
				{
					"internalType": "uint256",
					"name": "",
					"type": "uint256"
				}
			],
			"stateMutability": "view",
			"type": "function"
		},
		{
			"inputs": [
				{
					"internalType": "enum GasLockR.orderType",
					"name": "ordertype",
					"type": "uint8"
				},
				{
					"internalType": "uint256",
					"name": "gasPrice",
					"type": "uint256"
				}
			],
			"name": "setBaseGasPrice",
			"outputs": [],
			"stateMutability": "nonpayable",
			"type": "function"
		},
		{
			"inputs": [
				{
					"internalType": "enum GasLockR.orderType",
					"name": "ordertype",
					"type": "uint8"
				},
				{
					"internalType": "uint256",
					"name": "float",
					"type": "uint256"
				}
			],
			"name": "setFloatRate",
			"outputs": [],
			"stateMutability": "nonpayable",
			"type": "function"
		},
		{
			"inputs": [
				{
					"internalType": "enum GasLockR.orderType",
					"name": "ordertype",
					"type": "uint8"
				},
				{
					"internalType": "uint256",
					"name": "rate",
					"type": "uint256"
				}
			],
			"name": "setOrderRate",
			"outputs": [],
			"stateMutability": "nonpayable",
			"type": "function"
		},
		{
			"inputs": [
				{
					"internalType": "address",
					"name": "",
					"type": "address"
				}
			],
			"name": "userOrder",
			"outputs": [
				{
					"internalType": "enum GasLockR.orderType",
					"name": "Type",
					"type": "uint8"
				},
				{
					"internalType": "enum GasLockR.orderLevel",
					"name": "Level",
					"type": "uint8"
				},
				{
					"internalType": "uint256",
					"name": "startTime",
					"type": "uint256"
				},
				{
					"internalType": "uint256",
					"name": "endTime",
					"type": "uint256"
				},
				{
					"internalType": "uint256",
					"name": "triggerValue",
					"type": "uint256"
				},
				{
					"internalType": "uint256",
					"name": "maxValue",
					"type": "uint256"
				},
				{
					"internalType": "uint256",
					"name": "rate",
					"type": "uint256"
				},
				{
					"internalType": "bool",
					"name": "exists",
					"type": "bool"
				},
				{
					"internalType": "bool",
					"name": "isExpired",
					"type": "bool"
				}
			],
			"stateMutability": "view",
			"type": "function"
		},
		{
			"stateMutability": "payable",
			"type": "receive"
		}
	],
	"bytecode": {
		"object": "0x60806040526103e860015561271060025567016345785d8a000060035534801561002857600080fd5b5060008054336001600160a01b031990911617815560147f05b8ccbb9d4d8fb16ea74ce3c29a41f1b461fbdaff4714a0d9a8eb05499746bc5560197f1471eb6eb2c5e789fc3de43f8ce62938c7d1836ec861730447e2ada8fd81017b55601e7f89832631fb3c3307a103ba2c84ab569c64d6182a18893dcd163f0f1c2090733a556402540be4007f54cdd369e4e8a8515e52ca72ec816c2101831ad1f18bf44102ed171459c9b4f85564037e11d6007f3e5fec24aa4dc4e5aee2e025e51e1392c72a2500577559fae9665c6d52bd6a31556404a817c8007f8819ef417987f8ae7a81f42cdfb18815282fe989326fbff903d13cf0e03ace295560076020526104017f6d5257204ebe7d88fd91ae87941cb2dd9d8062b64ae5a2bd2d28ec40b9fbf6df5561041a7fb39221ace053465ec3453ce2b36430bd138b997ecea25c1043da0c366812b828556002905261044c7fb7c774451310d1be4108bc180d1b52823cb0ee0274a6c0081bcaf94f115fb96d556112c6806101a86000396000f3fe6080604052600436106101185760003560e01c8063694ee225116100a05780639e2c8ff1116100645780639e2c8ff114610350578063a239dddb14610366578063c07ae5f714610386578063c87a3651146103b3578063d1c01543146103ff57600080fd5b8063694ee225146102c457806376f75e7f146102e45780638af9527014610304578063918f867414610324578063961be3911461033a57600080fd5b80634637f3b2116100e75780634637f3b21461022057806347f73d711461024d5780634c3819a9146102715780635788af8c1461029157806358ac5a91146102a457600080fd5b80630270a66a146101245780630ce4abf8146101645780631bea10231461017a5780632a6ab18e146101fe57600080fd5b3661011f57005b600080fd5b34801561013057600080fd5b5061015161013f366004610ec6565b60066020526000908152604090205481565b6040519081526020015b60405180910390f35b34801561017057600080fd5b5061015160025481565b34801561018657600080fd5b506101e9610195366004610f00565b6004602081905260009182526040909120805460018201546002830154600384015494840154600585015460069095015460ff80861697610100968790048216979596949590949092808316929190041689565b60405161015b99989796959493929190610f57565b34801561020a57600080fd5b5061021e610219366004610fae565b61042c565b005b34801561022c57600080fd5b5061015161023b366004610ec6565b60076020526000908152604090205481565b34801561025957600080fd5b50610151610268366004610fee565b60009392505050565b34801561027d57600080fd5b5061021e61028c366004610fae565b610480565b61021e61029f3660046110d9565b6104ae565b3480156102b057600080fd5b5061021e6102bf36600461111e565b610712565b3480156102d057600080fd5b506101516102df36600461113c565b6107a0565b3480156102f057600080fd5b506101e96102ff36600461116f565b61092a565b34801561031057600080fd5b5061021e61031f36600461111e565b61098e565b34801561033057600080fd5b506101516103e881565b34801561034657600080fd5b5061015160035481565b34801561035c57600080fd5b5061015160015481565b34801561037257600080fd5b5061021e610381366004610fae565b610a0b565b34801561039257600080fd5b506101516103a1366004610ec6565b60056020526000908152604090205481565b3480156103bf57600080fd5b506103ef6103ce366004610f00565b6001600160a01b031660009081526004602052604090206006015460ff1690565b604051901515815260200161015b565b34801561040b57600080fd5b5061041f61041a36600461116f565b610a39565b60405161015b9190611188565b6000546001600160a01b0316331461044357600080fd5b806007600084600281111561045a5761045a610f1d565b600281111561046b5761046b610f1d565b81526020810191909152604001600020555050565b6000546001600160a01b0316331461049757600080fd5b806005600084600281111561045a5761045a610f1d565b6001600160a01b03831660009081526004602052604090206006015460ff1615610544576001600160a01b03831660009081526004602052604090206006015460ff6101009091041615156001146105445760405162461bcd60e51b81526020600482015260146024820152734f7264657220616c72656164792065786973747360601b60448201526064015b60405180910390fd5b6001600160a01b03831660009081526004602081905260408220805461ffff19908116825560018201849055600282018490556003820184905591810183905560058101929092556006909101805490911690556105a28282610ac3565b60006105ae83836107a0565b9050803410156105eb5760405162461bcd60e51b81526020600482015260086024820152676e6f206d6f6e657960c01b604482015260640161053b565b6105f58383610bbf565b6001600160a01b038516600090815260046020526040902081518154829060ff1916600183600281111561062b5761062b610f1d565b021790555060208201518154829061ff00191661010083600181111561065357610653610f1d565b021790555060408201516001820155606082015160028201556080820151600382015560a0820151600482015560c0820151600582015560e0820151600690910180546101009384015161ffff1990911692151561ff00191692909217911515909202179055348110156106cf57336106cc82346111e2565b50505b7fb4aac0eb68ebb288c52c627a09d02347780978b8107982b2555095f1a61db22b8484844860405161070494939291906111f5565b60405180910390a150505050565b604080516003808252608082019092526000916020820160608036833701905050905061073e82610a39565b6001600160a01b0384166000818152600460209081526040808320600601805461ff0019166101001790558051938452908301829052929350917f47cee97cb7acd717b3c0aa1435d004cd5b3c8c57d70dbceb4e4458bbd60e39d49101610704565b6000808360028111156107b5576107b5610f1d565b036108505760008260018111156107ce576107ce610f1d565b0361081a576103e860056000805b60028111156107ed576107ed610f1d565b815260200190815260200160002054600154610809919061122e565b6108139190611245565b9050610924565b6103e860056000805b600281111561083457610834610f1d565b815260200190815260200160002054600254610809919061122e565b600183600281111561086457610864610f1d565b0361089e57600082600181111561087d5761087d610f1d565b03610890576103e86005600060016107dc565b6103e8600560006001610823565b60028360028111156108b2576108b2610f1d565b036108ec5760008260018111156108cb576108cb610f1d565b036108de576103e86005600060026107dc565b6103e8600560006002610823565b60405162461bcd60e51b815260206004820152600d60248201526c6572726f72206d65737361676560981b604482015260640161053b565b92915050565b6008818154811061093a57600080fd5b6000918252602090912060079091020180546001820154600283015460038401546004850154600586015460069096015460ff80871698506101009687900481169795969495939492939282821692041689565b6000546001600160a01b031633146109a557600080fd5b6001600160a01b0382166000818152600460209081526040808320600601805461ff0019166101001790558051938452908301919091527f47cee97cb7acd717b3c0aa1435d004cd5b3c8c57d70dbceb4e4458bbd60e39d4910160405180910390a15050565b6000546001600160a01b03163314610a2257600080fd5b806006600084600281111561045a5761045a610f1d565b60408051600380825260808201909252606091602082018380368337019050509050600b81600081518110610a7057610a70611267565b602002602001018181525050600b81600181518110610a9157610a91611267565b602002602001018181525050600b81600281518110610ab257610ab2611267565b602002602001018181525050919050565b6000816001811115610ad757610ad7610f1d565b1480610af457506001816001811115610af257610af2610f1d565b145b610b325760405162461bcd60e51b815260206004820152600f60248201526e696e636f72726563742076616c756560881b604482015260640161053b565b6000826002811115610b4657610b46610f1d565b1480610b6357506001826002811115610b6157610b61610f1d565b145b80610b7f57506002826002811115610b7d57610b7d610f1d565b145b610bbb5760405162461bcd60e51b815260206004820152600d60248201526c6572726f72206d65737361676560981b604482015260640161053b565b5050565b610c1360408051610120810190915280600081526020016000815260200160008152602001600081526020016000815260200160008152602001600081526020016000151581526020016000151581525090565b80836002811115610c2657610c26610f1d565b90816002811115610c3957610c39610f1d565b90525042604082015260006101008201819052600160e0830152826001811115610c6557610c65610f1d565b03610c775760015460a0820152610c80565b60025460a08201525b6000836002811115610c9457610c94610f1d565b03610d4657610ca6426203f48061127d565b6060820152600080527f6d5257204ebe7d88fd91ae87941cb2dd9d8062b64ae5a2bd2d28ec40b9fbf6df5460066020527f54cdd369e4e8a8515e52ca72ec816c2101831ad1f18bf44102ed171459c9b4f8546103e891610d059161122e565b610d0f9190611245565b608082015260056000805b6002811115610d2b57610d2b610f1d565b815260208101919091526040016000205460c0820152610924565b6001836002811115610d5a57610d5a610f1d565b03610de657610d6c4262093a8061127d565b606082015260016000527fb39221ace053465ec3453ce2b36430bd138b997ecea25c1043da0c366812b8285460066020527f3e5fec24aa4dc4e5aee2e025e51e1392c72a2500577559fae9665c6d52bd6a31546103e891610dcc9161122e565b610dd69190611245565b6080820152600560006001610d1a565b6002836002811115610dfa57610dfa610f1d565b0361092457610e0c426213c68061127d565b606082015260026000527fb7c774451310d1be4108bc180d1b52823cb0ee0274a6c0081bcaf94f115fb96d5460066020527f8819ef417987f8ae7a81f42cdfb18815282fe989326fbff903d13cf0e03ace29546103e891610e6c9161122e565b610e769190611245565b6080820152600260005260056020527f89832631fb3c3307a103ba2c84ab569c64d6182a18893dcd163f0f1c2090733a5460c082015292915050565b803560038110610ec157600080fd5b919050565b600060208284031215610ed857600080fd5b610ee182610eb2565b9392505050565b6001600160a01b0381168114610efd57600080fd5b50565b600060208284031215610f1257600080fd5b8135610ee181610ee8565b634e487b7160e01b600052602160045260246000fd5b60038110610f4357610f43610f1d565b9052565b60028110610f4357610f43610f1d565b6101208101610f66828c610f33565b610f73602083018b610f47565b60408201989098526060810196909652608086019490945260a085019290925260c0840152151560e083015215156101009091015292915050565b60008060408385031215610fc157600080fd5b610fca83610eb2565b946020939093013593505050565b634e487b7160e01b600052604160045260246000fd5b60008060006060848603121561100357600080fd5b833561100e81610ee8565b92506020848101359250604085013567ffffffffffffffff8082111561103357600080fd5b818701915087601f83011261104757600080fd5b81358181111561105957611059610fd8565b8060051b604051601f19603f8301168101818110858211171561107e5761107e610fd8565b60405291825284820192508381018501918a83111561109c57600080fd5b938501935b828510156110ba578435845293850193928501926110a1565b8096505050505050509250925092565b803560028110610ec157600080fd5b6000806000606084860312156110ee57600080fd5b83356110f981610ee8565b925061110760208501610eb2565b9150611115604085016110ca565b90509250925092565b6000806040838503121561113157600080fd5b8235610fca81610ee8565b6000806040838503121561114f57600080fd5b61115883610eb2565b9150611166602084016110ca565b90509250929050565b60006020828403121561118157600080fd5b5035919050565b6020808252825182820181905260009190848201906040850190845b818110156111c0578351835292840192918401916001016111a4565b50909695505050505050565b634e487b7160e01b600052601160045260246000fd5b81810381811115610924576109246111cc565b6001600160a01b0385168152608081016112126020830186610f33565b61121f6040830185610f47565b82606083015295945050505050565b8082028115828204841417610924576109246111cc565b60008261126257634e487b7160e01b600052601260045260246000fd5b500490565b634e487b7160e01b600052603260045260246000fd5b80820180821115610924576109246111cc56fea2646970667358221220d522207435a4ca876068cdfada742ac93ba37843d08c7cf0a8b2bd408395d73b64736f6c63430008110033",
		"linkReferences": {}
	},
	"methodIdentifiers": {
		"DENOMINATOR()": "918f8674",
		"baseGasPrice(uint8)": "0270a66a",
		"calcuValue(uint8,uint8)": "694ee225",
		"cash()": "961be391",
		"check(address,uint256,uint256[])": "47f73d71",
		"claimAdvanced(address,uint256)": "58ac5a91",
		"claimNormal(address,uint256)": "8af95270",
		"deposit(address,uint8,uint8)": "5788af8c",
		"floatRate(uint8)": "4637f3b2",
		"getGasPrice(uint256)": "d1c01543",
		"isExistOrder(address)": "c87a3651",
		"maxOrderValue()": "0ce4abf8",
		"minOrderValue()": "9e2c8ff1",
		"orderList(uint256)": "76f75e7f",
		"orderRate(uint8)": "c07ae5f7",
		"setBaseGasPrice(uint8,uint256)": "a239dddb",
		"setFloatRate(uint8,uint256)": "2a6ab18e",
		"setOrderRate(uint8,uint256)": "4c3819a9",
		"userOrder(address)": "1bea1023"
	},
	"id": 0
}